{
  "_format": "hh-sol-artifact-1",
  "contractName": "Airdrop",
  "sourceName": "contracts/nft-airdrop/Airdrop.sol",
  "abi": [
    {
      "inputs": [
        {
          "internalType": "address",
          "name": "_token",
          "type": "address"
        },
        {
          "internalType": "bytes32",
          "name": "_merkleRoot",
          "type": "bytes32"
        }
      ],
      "stateMutability": "nonpayable",
      "type": "constructor"
    },
    {
      "anonymous": false,
      "inputs": [
        {
          "indexed": true,
          "internalType": "address",
          "name": "claimer",
          "type": "address"
        }
      ],
      "name": "Claim",
      "type": "event"
    },
    {
      "inputs": [
        {
          "internalType": "address",
          "name": "claimer",
          "type": "address"
        },
        {
          "internalType": "bytes32[]",
          "name": "merkleProof",
          "type": "bytes32[]"
        }
      ],
      "name": "canClaim",
      "outputs": [
        {
          "internalType": "bool",
          "name": "",
          "type": "bool"
        }
      ],
      "stateMutability": "view",
      "type": "function"
    },
    {
      "inputs": [
        {
          "internalType": "bytes32[]",
          "name": "merkleProof",
          "type": "bytes32[]"
        }
      ],
      "name": "claim",
      "outputs": [],
      "stateMutability": "nonpayable",
      "type": "function"
    },
    {
      "inputs": [
        {
          "internalType": "address",
          "name": "",
          "type": "address"
        }
      ],
      "name": "claimed",
      "outputs": [
        {
          "internalType": "bool",
          "name": "",
          "type": "bool"
        }
      ],
      "stateMutability": "view",
      "type": "function"
    },
    {
      "inputs": [],
      "name": "merkleRoot",
      "outputs": [
        {
          "internalType": "bytes32",
          "name": "",
          "type": "bytes32"
        }
      ],
      "stateMutability": "view",
      "type": "function"
    },
    {
      "inputs": [],
      "name": "token",
      "outputs": [
        {
          "internalType": "address",
          "name": "",
          "type": "address"
        }
      ],
      "stateMutability": "view",
      "type": "function"
    }
  ],
  "bytecode": "0x60c060405234801561001057600080fd5b50604051610a39380380610a398339818101604052810190610032919061010e565b8173ffffffffffffffffffffffffffffffffffffffff1660808173ffffffffffffffffffffffffffffffffffffffff16815250508060a08181525050505061014e565b600080fd5b600073ffffffffffffffffffffffffffffffffffffffff82169050919050565b60006100a58261007a565b9050919050565b6100b58161009a565b81146100c057600080fd5b50565b6000815190506100d2816100ac565b92915050565b6000819050919050565b6100eb816100d8565b81146100f657600080fd5b50565b600081519050610108816100e2565b92915050565b6000806040838503121561012557610124610075565b5b6000610133858286016100c3565b9250506020610144858286016100f9565b9150509250929050565b60805160a0516108b8610181600039600081816101b101526102080152600081816102cd01526103bf01526108b86000f3fe608060405234801561001057600080fd5b50600436106100575760003560e01c806318894daf1461005c5780632eb4a7ab1461008c578063b391c508146100aa578063c884ef83146100c6578063fc0c546a146100f6575b600080fd5b6100766004803603810190610071919061055d565b610114565b60405161008391906105d8565b60405180910390f35b610094610206565b6040516100a1919061060c565b60405180910390f35b6100c460048036038101906100bf9190610627565b61022a565b005b6100e060048036038101906100db9190610674565b61039d565b6040516100ed91906105d8565b60405180910390f35b6100fe6103bd565b60405161010b91906106b0565b60405180910390f35b60008060008573ffffffffffffffffffffffffffffffffffffffff1673ffffffffffffffffffffffffffffffffffffffff16815260200190815260200160002060009054906101000a900460ff161580156101fd57506101fc838380806020026020016040519081016040528093929190818152602001838360200280828437600081840152601f19601f820116905080830192505050505050507f0000000000000000000000000000000000000000000000000000000000000000866040516020016101e19190610713565b604051602081830303815290604052805190602001206103e1565b5b90509392505050565b7f000000000000000000000000000000000000000000000000000000000000000081565b610235338383610114565b610274576040517f08c379a000000000000000000000000000000000000000000000000000000000815260040161026b906107b1565b60405180910390fd5b60016000803373ffffffffffffffffffffffffffffffffffffffff1673ffffffffffffffffffffffffffffffffffffffff16815260200190815260200160002060006101000a81548160ff0219169083151502179055507f000000000000000000000000000000000000000000000000000000000000000073ffffffffffffffffffffffffffffffffffffffff166340d097c3336040518263ffffffff1660e01b815260040161032491906106b0565b600060405180830381600087803b15801561033e57600080fd5b505af1158015610352573d6000803e3d6000fd5b505050503373ffffffffffffffffffffffffffffffffffffffff167f0c7ef932d3b91976772937f18d5ef9b39a9930bef486b576c374f047c4b512dc60405160405180910390a25050565b60006020528060005260406000206000915054906101000a900460ff1681565b7f000000000000000000000000000000000000000000000000000000000000000081565b6000826103ee85846103f8565b1490509392505050565b60008082905060005b84518110156104435761042e82868381518110610421576104206107d1565b5b602002602001015161044e565b9150808061043b90610839565b915050610401565b508091505092915050565b6000818310610466576104618284610479565b610471565b6104708383610479565b5b905092915050565b600082600052816020526040600020905092915050565b600080fd5b600080fd5b600073ffffffffffffffffffffffffffffffffffffffff82169050919050565b60006104c58261049a565b9050919050565b6104d5816104ba565b81146104e057600080fd5b50565b6000813590506104f2816104cc565b92915050565b600080fd5b600080fd5b600080fd5b60008083601f84011261051d5761051c6104f8565b5b8235905067ffffffffffffffff81111561053a576105396104fd565b5b60208301915083602082028301111561055657610555610502565b5b9250929050565b60008060006040848603121561057657610575610490565b5b6000610584868287016104e3565b935050602084013567ffffffffffffffff8111156105a5576105a4610495565b5b6105b186828701610507565b92509250509250925092565b60008115159050919050565b6105d2816105bd565b82525050565b60006020820190506105ed60008301846105c9565b92915050565b6000819050919050565b610606816105f3565b82525050565b600060208201905061062160008301846105fd565b92915050565b6000806020838503121561063e5761063d610490565b5b600083013567ffffffffffffffff81111561065c5761065b610495565b5b61066885828601610507565b92509250509250929050565b60006020828403121561068a57610689610490565b5b6000610698848285016104e3565b91505092915050565b6106aa816104ba565b82525050565b60006020820190506106c560008301846106a1565b92915050565b60008160601b9050919050565b60006106e3826106cb565b9050919050565b60006106f5826106d8565b9050919050565b61070d610708826104ba565b6106ea565b82525050565b600061071f82846106fc565b60148201915081905092915050565b600082825260208201905092915050565b7f41697264726f703a2041646472657373206973206e6f7420612063616e64696460008201527f61746520666f7220636c61696d00000000000000000000000000000000000000602082015250565b600061079b602d8361072e565b91506107a68261073f565b604082019050919050565b600060208201905081810360008301526107ca8161078e565b9050919050565b7f4e487b7100000000000000000000000000000000000000000000000000000000600052603260045260246000fd5b7f4e487b7100000000000000000000000000000000000000000000000000000000600052601160045260246000fd5b6000819050919050565b60006108448261082f565b91507fffffffffffffffffffffffffffffffffffffffffffffffffffffffffffffffff82141561087757610876610800565b5b60018201905091905056fea26469706673582212204b452cb713068f8fa802642ed9ffca3c40b773f42cb3e2733cb1ca01a04bc22464736f6c634300080b0033",
  "linkReferences": {},
  "deployedLinkReferences": {}
}